{
  "contractName": "College",
  "abi": [
    {
      "inputs": [],
      "name": "classe",
      "outputs": [
        {
          "internalType": "enum College.Classe",
          "name": "",
          "type": "uint8"
        }
      ],
      "stateMutability": "view",
      "type": "function"
    },
    {
      "inputs": [
        {
          "internalType": "address",
          "name": "",
          "type": "address"
        }
      ],
      "name": "etudiants",
      "outputs": [
        {
          "internalType": "string",
          "name": "nom",
          "type": "string"
        },
        {
          "internalType": "uint256",
          "name": "note",
          "type": "uint256"
        }
      ],
      "stateMutability": "view",
      "type": "function"
    },
    {
      "inputs": [
        {
          "internalType": "uint256",
          "name": "",
          "type": "uint256"
        }
      ],
      "name": "etudiantsArray",
      "outputs": [
        {
          "internalType": "string",
          "name": "nom",
          "type": "string"
        },
        {
          "internalType": "uint256",
          "name": "note",
          "type": "uint256"
        }
      ],
      "stateMutability": "view",
      "type": "function"
    },
    {
      "inputs": [
        {
          "internalType": "address",
          "name": "_addr",
          "type": "address"
        },
        {
          "internalType": "string",
          "name": "_nom",
          "type": "string"
        },
        {
          "internalType": "uint256",
          "name": "_note",
          "type": "uint256"
        }
      ],
      "name": "setEtudiantMapping",
      "outputs": [],
      "stateMutability": "nonpayable",
      "type": "function"
    },
    {
      "inputs": [
        {
          "internalType": "string",
          "name": "_nom",
          "type": "string"
        },
        {
          "internalType": "uint256",
          "name": "_note",
          "type": "uint256"
        }
      ],
      "name": "setEtudiantArray",
      "outputs": [],
      "stateMutability": "nonpayable",
      "type": "function"
    },
    {
      "inputs": [
        {
          "internalType": "address",
          "name": "_addr",
          "type": "address"
        }
      ],
      "name": "getEtudiantMapping",
      "outputs": [
        {
          "components": [
            {
              "internalType": "string",
              "name": "nom",
              "type": "string"
            },
            {
              "internalType": "uint256",
              "name": "note",
              "type": "uint256"
            }
          ],
          "internalType": "struct College.Etudiant",
          "name": "",
          "type": "tuple"
        }
      ],
      "stateMutability": "view",
      "type": "function"
    },
    {
      "inputs": [
        {
          "internalType": "uint256",
          "name": "_id",
          "type": "uint256"
        }
      ],
      "name": "getEtudiantArray",
      "outputs": [
        {
          "components": [
            {
              "internalType": "string",
              "name": "nom",
              "type": "string"
            },
            {
              "internalType": "uint256",
              "name": "note",
              "type": "uint256"
            }
          ],
          "internalType": "struct College.Etudiant",
          "name": "",
          "type": "tuple"
        }
      ],
      "stateMutability": "view",
      "type": "function"
    },
    {
      "inputs": [
        {
          "internalType": "address",
          "name": "_addr",
          "type": "address"
        }
      ],
      "name": "deleter",
      "outputs": [],
      "stateMutability": "nonpayable",
      "type": "function"
    },
    {
      "inputs": [
        {
          "internalType": "uint256",
          "name": "_classe",
          "type": "uint256"
        }
      ],
      "name": "setEnum",
      "outputs": [],
      "stateMutability": "nonpayable",
      "type": "function"
    }
  ],
  "bytecode": "0x608060405234801561001057600080fd5b50610fa3806100206000396000f3fe608060405234801561001057600080fd5b50600436106100b0576000357c010000000000000000000000000000000000000000000000000000000090048063aa196b9b11610083578063aa196b9b1461014f578063cd04251c1461017f578063d9b1c1461461019b578063e9c2d827146101b9578063ee6097ff146101e9576100b0565b80636572d33a146100b55780636c38a514146100d157806377420711146100ed5780638fc846911461011e575b600080fd5b6100cf60048036038101906100ca91906108cf565b610205565b005b6100eb60048036038101906100e69190610989565b61026b565b005b61010760048036038101906101029190610989565b6102c8565b604051610115929190610a44565b60405180910390f35b61013860048036038101906101339190610a74565b610374565b604051610146929190610a44565b60405180910390f35b61016960048036038101906101649190610989565b610430565b6040516101769190610b37565b60405180910390f35b61019960048036038101906101949190610a74565b610525565b005b6101a3610563565b6040516101b09190610bd0565b60405180910390f35b6101d360048036038101906101ce9190610a74565b610574565b6040516101e09190610b37565b60405180910390f35b61020360048036038101906101fe9190610beb565b61064c565b005b60026040518060400160405280848152602001838152509080600181540180825580915050600190039060005260206000209060020201600090919091909150600082015181600001908161025a9190610e6c565b506020820151816001015550505050565b600160008273ffffffffffffffffffffffffffffffffffffffff1673ffffffffffffffffffffffffffffffffffffffff168152602001908152602001600020600080820160006102bb91906106c8565b6001820160009055505050565b60016020528060005260406000206000915090508060000180546102eb90610c89565b80601f016020809104026020016040519081016040528092919081815260200182805461031790610c89565b80156103645780601f1061033957610100808354040283529160200191610364565b820191906000526020600020905b81548152906001019060200180831161034757829003601f168201915b5050505050908060010154905082565b6002818154811061038457600080fd5b90600052602060002090600202016000915090508060000180546103a790610c89565b80601f01602080910402602001604051908101604052809291908181526020018280546103d390610c89565b80156104205780601f106103f557610100808354040283529160200191610420565b820191906000526020600020905b81548152906001019060200180831161040357829003601f168201915b5050505050908060010154905082565b610438610708565b600160008373ffffffffffffffffffffffffffffffffffffffff1673ffffffffffffffffffffffffffffffffffffffff16815260200190815260200160002060405180604001604052908160008201805461049290610c89565b80601f01602080910402602001604051908101604052809291908181526020018280546104be90610c89565b801561050b5780601f106104e05761010080835404028352916020019161050b565b820191906000526020600020905b8154815290600101906020018083116104ee57829003601f168201915b505050505081526020016001820154815250509050919050565b80600281111561053857610537610b59565b5b6000806101000a81548160ff0219169083600281111561055b5761055a610b59565b5b021790555050565b60008054906101000a900460ff1681565b61057c610708565b600282815481106105905761058f610f3e565b5b90600052602060002090600202016040518060400160405290816000820180546105b990610c89565b80601f01602080910402602001604051908101604052809291908181526020018280546105e590610c89565b80156106325780601f1061060757610100808354040283529160200191610632565b820191906000526020600020905b81548152906001019060200180831161061557829003601f168201915b505050505081526020016001820154815250509050919050565b604051806040016040528083815260200182815250600160008573ffffffffffffffffffffffffffffffffffffffff1673ffffffffffffffffffffffffffffffffffffffff16815260200190815260200160002060008201518160000190816106b59190610e6c565b5060208201518160010155905050505050565b5080546106d490610c89565b6000825580601f106106e65750610705565b601f0160209004906000526020600020908101906107049190610722565b5b50565b604051806040016040528060608152602001600081525090565b5b8082111561073b576000816000905550600101610723565b5090565b6000604051905090565b600080fd5b600080fd5b600080fd5b600080fd5b6000601f19601f8301169050919050565b7f4e487b7100000000000000000000000000000000000000000000000000000000600052604160045260246000fd5b6107a68261075d565b810181811067ffffffffffffffff821117156107c5576107c461076e565b5b80604052505050565b60006107d861073f565b90506107e4828261079d565b919050565b600067ffffffffffffffff8211156108045761080361076e565b5b61080d8261075d565b9050602081019050919050565b82818337600083830152505050565b600061083c610837846107e9565b6107ce565b90508281526020810184848401111561085857610857610758565b5b61086384828561081a565b509392505050565b600082601f8301126108805761087f610753565b5b8135610890848260208601610829565b91505092915050565b6000819050919050565b6108ac81610899565b81146108b757600080fd5b50565b6000813590506108c9816108a3565b92915050565b600080604083850312156108e6576108e5610749565b5b600083013567ffffffffffffffff8111156109045761090361074e565b5b6109108582860161086b565b9250506020610921858286016108ba565b9150509250929050565b600073ffffffffffffffffffffffffffffffffffffffff82169050919050565b60006109568261092b565b9050919050565b6109668161094b565b811461097157600080fd5b50565b6000813590506109838161095d565b92915050565b60006020828403121561099f5761099e610749565b5b60006109ad84828501610974565b91505092915050565b600081519050919050565b600082825260208201905092915050565b60005b838110156109f05780820151818401526020810190506109d5565b60008484015250505050565b6000610a07826109b6565b610a1181856109c1565b9350610a218185602086016109d2565b610a2a8161075d565b840191505092915050565b610a3e81610899565b82525050565b60006040820190508181036000830152610a5e81856109fc565b9050610a6d6020830184610a35565b9392505050565b600060208284031215610a8a57610a89610749565b5b6000610a98848285016108ba565b91505092915050565b600082825260208201905092915050565b6000610abd826109b6565b610ac78185610aa1565b9350610ad78185602086016109d2565b610ae08161075d565b840191505092915050565b610af481610899565b82525050565b60006040830160008301518482036000860152610b178282610ab2565b9150506020830151610b2c6020860182610aeb565b508091505092915050565b60006020820190508181036000830152610b518184610afa565b905092915050565b7f4e487b7100000000000000000000000000000000000000000000000000000000600052602160045260246000fd5b60038110610b9957610b98610b59565b5b50565b6000819050610baa82610b88565b919050565b6000610bba82610b9c565b9050919050565b610bca81610baf565b82525050565b6000602082019050610be56000830184610bc1565b92915050565b600080600060608486031215610c0457610c03610749565b5b6000610c1286828701610974565b935050602084013567ffffffffffffffff811115610c3357610c3261074e565b5b610c3f8682870161086b565b9250506040610c50868287016108ba565b9150509250925092565b7f4e487b7100000000000000000000000000000000000000000000000000000000600052602260045260246000fd5b60006002820490506001821680610ca157607f821691505b602082108103610cb457610cb3610c5a565b5b50919050565b60008190508160005260206000209050919050565b60006020601f8301049050919050565b60008160020a8302905092915050565b600060088302610d1f7fffffffffffffffffffffffffffffffffffffffffffffffffffffffffffffffff82610cdf565b610d298683610cdf565b95508019841693508086168417925050509392505050565b6000819050919050565b6000610d66610d61610d5c84610899565b610d41565b610899565b9050919050565b6000819050919050565b610d8083610d4b565b610d94610d8c82610d6d565b848454610cef565b825550505050565b600090565b610da9610d9c565b610db4818484610d77565b505050565b5b81811015610dd857610dcd600082610da1565b600181019050610dba565b5050565b601f821115610e1d57610dee81610cba565b610df784610ccf565b81016020851015610e06578190505b610e1a610e1285610ccf565b830182610db9565b50505b505050565b60008160020a8304905092915050565b6000610e4360001984600802610e22565b1980831691505092915050565b6000610e5c8383610e32565b9150826002028217905092915050565b610e75826109b6565b67ffffffffffffffff811115610e8e57610e8d61076e565b5b610e988254610c89565b610ea3828285610ddc565b600060209050601f831160018114610ed65760008415610ec4578287015190505b610ece8582610e50565b865550610f36565b601f198416610ee486610cba565b60005b82811015610f0c57848901518255600182019150602085019450602081019050610ee7565b86831015610f295784890151610f25601f891682610e32565b8355505b6001600288020188555050505b505050505050565b7f4e487b7100000000000000000000000000000000000000000000000000000000600052603260045260246000fdfea2646970667358221220b53bf57a3803257e9a4f3d2682784656b1f4914f4a5bc97d60418eeeeb502a9b64736f6c63430008140033",
  "immutableReferences": {},
  "source": "// SPDX-License-Identifier: GPL-3.0\n\npragma solidity >=0.8.0 <0.9.0;\n \n /* goerli deployment add : 0x6E063cf59F7528598da474F13F74601284678068 */\ncontract College {\n\n    enum Classe {\n        sixieme, cinquieme , quatrieme\n    }\n    struct Etudiant {\n        string nom;\n        uint note;\n    }\n\nClasse public classe;\n\nmapping(address => Etudiant) public etudiants;\nEtudiant[] public etudiantsArray;\n\nfunction setEtudiantMapping(address _addr, string memory _nom, uint _note) public {\n    etudiants[_addr] = Etudiant(_nom, _note);\n}\nfunction setEtudiantArray(string memory _nom, uint _note) public {\n    etudiantsArray.push(Etudiant(_nom, _note));\n}\n\nfunction getEtudiantMapping(address _addr) public view returns (Etudiant memory) {\n    return etudiants[_addr];\n}\n\nfunction getEtudiantArray(uint _id) public view returns (Etudiant memory) {\n    return etudiantsArray[_id];\n}\n\nfunction deleter(address _addr) public {\n    delete etudiants[_addr];\n}\n\n\nfunction setEnum(uint _classe) public {\n    classe = Classe(_classe);\n}\n\n\n\n\n\n}",
  "sourcePath": "/home/ibournubuntu/ALYRA/Developpeur-Ethereum-Template/4. Truffle & CI-CD/TruffleLive/contracts/Etudiants.sol",
  "compiler": {
    "name": "solc",
    "version": "0.8.20+commit.a1b79de6.Emscripten.clang"
  },
  "schemaVersion": "3.4.14",
  "updatedAt": "2023-06-07T18:28:36.248Z",
  "devdoc": {
    "kind": "dev",
    "methods": {},
    "version": 1
  },
  "userdoc": {
    "kind": "user",
    "methods": {},
    "version": 1
  }
}