{
  "contractName": "Crowdsale",
  "abi": [
    {
      "inputs": [
        {
          "internalType": "uint256",
          "name": "initialSupply",
          "type": "uint256"
        }
      ],
      "stateMutability": "nonpayable",
      "type": "constructor"
    },
    {
      "inputs": [],
      "name": "rate",
      "outputs": [
        {
          "internalType": "uint256",
          "name": "",
          "type": "uint256"
        }
      ],
      "stateMutability": "view",
      "type": "function"
    },
    {
      "inputs": [],
      "name": "token",
      "outputs": [
        {
          "internalType": "contract ERC20Token",
          "name": "",
          "type": "address"
        }
      ],
      "stateMutability": "view",
      "type": "function"
    },
    {
      "stateMutability": "payable",
      "type": "receive"
    }
  ],
  "bytecode": "0x608060405260c860005534801561001557600080fd5b50604051611f6c380380611f6c833981810160405281019061003791906100f9565b80604051610044906100b1565b61004e9190610135565b604051809103906000f08015801561006a573d6000803e3d6000fd5b50600160006101000a81548173ffffffffffffffffffffffffffffffffffffffff021916908373ffffffffffffffffffffffffffffffffffffffff16021790555050610150565b61197c806105f083390190565b600080fd5b6000819050919050565b6100d6816100c3565b81146100e157600080fd5b50565b6000815190506100f3816100cd565b92915050565b60006020828403121561010f5761010e6100be565b5b600061011d848285016100e4565b91505092915050565b61012f816100c3565b82525050565b600060208201905061014a6000830184610126565b92915050565b6104918061015f6000396000f3fe60806040526004361061002d5760003560e01c80632c4e722e1461008d578063fc0c546a146100b857610088565b366100885767016345785d8a000034101561007d576040517f08c379a000000000000000000000000000000000000000000000000000000000815260040161007490610248565b60405180910390fd5b610086346100e3565b005b600080fd5b34801561009957600080fd5b506100a2610199565b6040516100af9190610281565b60405180910390f35b3480156100c457600080fd5b506100cd61019f565b6040516100da919061031b565b60405180910390f35b60008054826100f29190610365565b9050600160009054906101000a900473ffffffffffffffffffffffffffffffffffffffff1673ffffffffffffffffffffffffffffffffffffffff1663a9059cbb33836040518363ffffffff1660e01b81526004016101519291906103c8565b6020604051808303816000875af1158015610170573d6000803e3d6000fd5b505050506040513d601f19601f82011682018060405250810190610194919061042e565b505050565b60005481565b600160009054906101000a900473ffffffffffffffffffffffffffffffffffffffff1681565b600082825260208201905092915050565b7f796f752063616e27742073656e64206c657373207468616e20302e312065746860008201527f6572000000000000000000000000000000000000000000000000000000000000602082015250565b60006102326022836101c5565b915061023d826101d6565b604082019050919050565b6000602082019050818103600083015261026181610225565b9050919050565b6000819050919050565b61027b81610268565b82525050565b60006020820190506102966000830184610272565b92915050565b600073ffffffffffffffffffffffffffffffffffffffff82169050919050565b6000819050919050565b60006102e16102dc6102d78461029c565b6102bc565b61029c565b9050919050565b60006102f3826102c6565b9050919050565b6000610305826102e8565b9050919050565b610315816102fa565b82525050565b6000602082019050610330600083018461030c565b92915050565b7f4e487b7100000000000000000000000000000000000000000000000000000000600052601160045260246000fd5b600061037082610268565b915061037b83610268565b925082820261038981610268565b915082820484148315176103a05761039f610336565b5b5092915050565b60006103b28261029c565b9050919050565b6103c2816103a7565b82525050565b60006040820190506103dd60008301856103b9565b6103ea6020830184610272565b9392505050565b600080fd5b60008115159050919050565b61040b816103f6565b811461041657600080fd5b50565b60008151905061042881610402565b92915050565b600060208284031215610444576104436103f1565b5b600061045284828501610419565b9150509291505056fea2646970667358221220ceec3084edb13a8391d74183af8cec05faab049f92ecf4cccc3be97f63e51c9564736f6c6343000811003360806040523480156200001157600080fd5b506040516200197c3803806200197c833981810160405281019062000037919062000299565b6040518060400160405280600581526020017f414c5952410000000000000000000000000000000000000000000000000000008152506040518060400160405280600381526020017f414c5900000000000000000000000000000000000000000000000000000000008152508160039081620000b491906200053b565b508060049081620000c691906200053b565b505050620000db3382620000e260201b60201c565b506200073d565b600073ffffffffffffffffffffffffffffffffffffffff168273ffffffffffffffffffffffffffffffffffffffff160362000154576040517f08c379a00000000000000000000000000000000000000000000000000000000081526004016200014b9062000683565b60405180910390fd5b62000168600083836200024f60201b60201c565b80600260008282546200017c9190620006d4565b92505081905550806000808473ffffffffffffffffffffffffffffffffffffffff1673ffffffffffffffffffffffffffffffffffffffff168152602001908152602001600020600082825401925050819055508173ffffffffffffffffffffffffffffffffffffffff16600073ffffffffffffffffffffffffffffffffffffffff167fddf252ad1be2c89b69c2b068fc378daa952ba7f163c4a11628f55a4df523b3ef836040516200022f919062000720565b60405180910390a36200024b600083836200025460201b60201c565b5050565b505050565b505050565b600080fd5b6000819050919050565b62000273816200025e565b81146200027f57600080fd5b50565b600081519050620002938162000268565b92915050565b600060208284031215620002b257620002b162000259565b5b6000620002c28482850162000282565b91505092915050565b600081519050919050565b7f4e487b7100000000000000000000000000000000000000000000000000000000600052604160045260246000fd5b7f4e487b7100000000000000000000000000000000000000000000000000000000600052602260045260246000fd5b600060028204905060018216806200034d57607f821691505b60208210810362000363576200036262000305565b5b50919050565b60008190508160005260206000209050919050565b60006020601f8301049050919050565b600082821b905092915050565b600060088302620003cd7fffffffffffffffffffffffffffffffffffffffffffffffffffffffffffffffff826200038e565b620003d986836200038e565b95508019841693508086168417925050509392505050565b6000819050919050565b60006200041c6200041662000410846200025e565b620003f1565b6200025e565b9050919050565b6000819050919050565b6200043883620003fb565b62000450620004478262000423565b8484546200039b565b825550505050565b600090565b6200046762000458565b620004748184846200042d565b505050565b5b818110156200049c57620004906000826200045d565b6001810190506200047a565b5050565b601f821115620004eb57620004b58162000369565b620004c0846200037e565b81016020851015620004d0578190505b620004e8620004df856200037e565b83018262000479565b50505b505050565b600082821c905092915050565b60006200051060001984600802620004f0565b1980831691505092915050565b60006200052b8383620004fd565b9150826002028217905092915050565b6200054682620002cb565b67ffffffffffffffff811115620005625762000561620002d6565b5b6200056e825462000334565b6200057b828285620004a0565b600060209050601f831160018114620005b357600084156200059e578287015190505b620005aa85826200051d565b8655506200061a565b601f198416620005c38662000369565b60005b82811015620005ed57848901518255600182019150602085019450602081019050620005c6565b868310156200060d578489015162000609601f891682620004fd565b8355505b6001600288020188555050505b505050505050565b600082825260208201905092915050565b7f45524332303a206d696e7420746f20746865207a65726f206164647265737300600082015250565b60006200066b601f8362000622565b9150620006788262000633565b602082019050919050565b600060208201905081810360008301526200069e816200065c565b9050919050565b7f4e487b7100000000000000000000000000000000000000000000000000000000600052601160045260246000fd5b6000620006e1826200025e565b9150620006ee836200025e565b9250828201905080821115620007095762000708620006a5565b5b92915050565b6200071a816200025e565b82525050565b60006020820190506200073760008301846200070f565b92915050565b61122f806200074d6000396000f3fe608060405234801561001057600080fd5b50600436106100a95760003560e01c80633950935111610071578063395093511461016857806370a082311461019857806395d89b41146101c8578063a457c2d7146101e6578063a9059cbb14610216578063dd62ed3e14610246576100a9565b806306fdde03146100ae578063095ea7b3146100cc57806318160ddd146100fc57806323b872dd1461011a578063313ce5671461014a575b600080fd5b6100b6610276565b6040516100c39190610b0c565b60405180910390f35b6100e660048036038101906100e19190610bc7565b610308565b6040516100f39190610c22565b60405180910390f35b61010461032b565b6040516101119190610c4c565b60405180910390f35b610134600480360381019061012f9190610c67565b610335565b6040516101419190610c22565b60405180910390f35b610152610364565b60405161015f9190610cd6565b60405180910390f35b610182600480360381019061017d9190610bc7565b61036d565b60405161018f9190610c22565b60405180910390f35b6101b260048036038101906101ad9190610cf1565b6103a4565b6040516101bf9190610c4c565b60405180910390f35b6101d06103ec565b6040516101dd9190610b0c565b60405180910390f35b61020060048036038101906101fb9190610bc7565b61047e565b60405161020d9190610c22565b60405180910390f35b610230600480360381019061022b9190610bc7565b6104f5565b60405161023d9190610c22565b60405180910390f35b610260600480360381019061025b9190610d1e565b610518565b60405161026d9190610c4c565b60405180910390f35b60606003805461028590610d8d565b80601f01602080910402602001604051908101604052809291908181526020018280546102b190610d8d565b80156102fe5780601f106102d3576101008083540402835291602001916102fe565b820191906000526020600020905b8154815290600101906020018083116102e157829003601f168201915b5050505050905090565b60008061031361059f565b90506103208185856105a7565b600191505092915050565b6000600254905090565b60008061034061059f565b905061034d858285610770565b6103588585856107fc565b60019150509392505050565b60006012905090565b60008061037861059f565b905061039981858561038a8589610518565b6103949190610ded565b6105a7565b600191505092915050565b60008060008373ffffffffffffffffffffffffffffffffffffffff1673ffffffffffffffffffffffffffffffffffffffff168152602001908152602001600020549050919050565b6060600480546103fb90610d8d565b80601f016020809104026020016040519081016040528092919081815260200182805461042790610d8d565b80156104745780601f1061044957610100808354040283529160200191610474565b820191906000526020600020905b81548152906001019060200180831161045757829003601f168201915b5050505050905090565b60008061048961059f565b905060006104978286610518565b9050838110156104dc576040517f08c379a00000000000000000000000000000000000000000000000000000000081526004016104d390610e93565b60405180910390fd5b6104e982868684036105a7565b60019250505092915050565b60008061050061059f565b905061050d8185856107fc565b600191505092915050565b6000600160008473ffffffffffffffffffffffffffffffffffffffff1673ffffffffffffffffffffffffffffffffffffffff16815260200190815260200160002060008373ffffffffffffffffffffffffffffffffffffffff1673ffffffffffffffffffffffffffffffffffffffff16815260200190815260200160002054905092915050565b600033905090565b600073ffffffffffffffffffffffffffffffffffffffff168373ffffffffffffffffffffffffffffffffffffffff1603610616576040517f08c379a000000000000000000000000000000000000000000000000000000000815260040161060d90610f25565b60405180910390fd5b600073ffffffffffffffffffffffffffffffffffffffff168273ffffffffffffffffffffffffffffffffffffffff1603610685576040517f08c379a000000000000000000000000000000000000000000000000000000000815260040161067c90610fb7565b60405180910390fd5b80600160008573ffffffffffffffffffffffffffffffffffffffff1673ffffffffffffffffffffffffffffffffffffffff16815260200190815260200160002060008473ffffffffffffffffffffffffffffffffffffffff1673ffffffffffffffffffffffffffffffffffffffff168152602001908152602001600020819055508173ffffffffffffffffffffffffffffffffffffffff168373ffffffffffffffffffffffffffffffffffffffff167f8c5be1e5ebec7d5bd14f71427d1e84f3dd0314c0f7b2291e5b200ac8c7c3b925836040516107639190610c4c565b60405180910390a3505050565b600061077c8484610518565b90507fffffffffffffffffffffffffffffffffffffffffffffffffffffffffffffffff81146107f657818110156107e8576040517f08c379a00000000000000000000000000000000000000000000000000000000081526004016107df90611023565b60405180910390fd5b6107f584848484036105a7565b5b50505050565b600073ffffffffffffffffffffffffffffffffffffffff168373ffffffffffffffffffffffffffffffffffffffff160361086b576040517f08c379a0000000000000000000000000000000000000000000000000000000008152600401610862906110b5565b60405180910390fd5b600073ffffffffffffffffffffffffffffffffffffffff168273ffffffffffffffffffffffffffffffffffffffff16036108da576040517f08c379a00000000000000000000000000000000000000000000000000000000081526004016108d190611147565b60405180910390fd5b6108e5838383610a72565b60008060008573ffffffffffffffffffffffffffffffffffffffff1673ffffffffffffffffffffffffffffffffffffffff1681526020019081526020016000205490508181101561096b576040517f08c379a0000000000000000000000000000000000000000000000000000000008152600401610962906111d9565b60405180910390fd5b8181036000808673ffffffffffffffffffffffffffffffffffffffff1673ffffffffffffffffffffffffffffffffffffffff16815260200190815260200160002081905550816000808573ffffffffffffffffffffffffffffffffffffffff1673ffffffffffffffffffffffffffffffffffffffff168152602001908152602001600020600082825401925050819055508273ffffffffffffffffffffffffffffffffffffffff168473ffffffffffffffffffffffffffffffffffffffff167fddf252ad1be2c89b69c2b068fc378daa952ba7f163c4a11628f55a4df523b3ef84604051610a599190610c4c565b60405180910390a3610a6c848484610a77565b50505050565b505050565b505050565b600081519050919050565b600082825260208201905092915050565b60005b83811015610ab6578082015181840152602081019050610a9b565b60008484015250505050565b6000601f19601f8301169050919050565b6000610ade82610a7c565b610ae88185610a87565b9350610af8818560208601610a98565b610b0181610ac2565b840191505092915050565b60006020820190508181036000830152610b268184610ad3565b905092915050565b600080fd5b600073ffffffffffffffffffffffffffffffffffffffff82169050919050565b6000610b5e82610b33565b9050919050565b610b6e81610b53565b8114610b7957600080fd5b50565b600081359050610b8b81610b65565b92915050565b6000819050919050565b610ba481610b91565b8114610baf57600080fd5b50565b600081359050610bc181610b9b565b92915050565b60008060408385031215610bde57610bdd610b2e565b5b6000610bec85828601610b7c565b9250506020610bfd85828601610bb2565b9150509250929050565b60008115159050919050565b610c1c81610c07565b82525050565b6000602082019050610c376000830184610c13565b92915050565b610c4681610b91565b82525050565b6000602082019050610c616000830184610c3d565b92915050565b600080600060608486031215610c8057610c7f610b2e565b5b6000610c8e86828701610b7c565b9350506020610c9f86828701610b7c565b9250506040610cb086828701610bb2565b9150509250925092565b600060ff82169050919050565b610cd081610cba565b82525050565b6000602082019050610ceb6000830184610cc7565b92915050565b600060208284031215610d0757610d06610b2e565b5b6000610d1584828501610b7c565b91505092915050565b60008060408385031215610d3557610d34610b2e565b5b6000610d4385828601610b7c565b9250506020610d5485828601610b7c565b9150509250929050565b7f4e487b7100000000000000000000000000000000000000000000000000000000600052602260045260246000fd5b60006002820490506001821680610da557607f821691505b602082108103610db857610db7610d5e565b5b50919050565b7f4e487b7100000000000000000000000000000000000000000000000000000000600052601160045260246000fd5b6000610df882610b91565b9150610e0383610b91565b9250828201905080821115610e1b57610e1a610dbe565b5b92915050565b7f45524332303a2064656372656173656420616c6c6f77616e63652062656c6f7760008201527f207a65726f000000000000000000000000000000000000000000000000000000602082015250565b6000610e7d602583610a87565b9150610e8882610e21565b604082019050919050565b60006020820190508181036000830152610eac81610e70565b9050919050565b7f45524332303a20617070726f76652066726f6d20746865207a65726f2061646460008201527f7265737300000000000000000000000000000000000000000000000000000000602082015250565b6000610f0f602483610a87565b9150610f1a82610eb3565b604082019050919050565b60006020820190508181036000830152610f3e81610f02565b9050919050565b7f45524332303a20617070726f766520746f20746865207a65726f20616464726560008201527f7373000000000000000000000000000000000000000000000000000000000000602082015250565b6000610fa1602283610a87565b9150610fac82610f45565b604082019050919050565b60006020820190508181036000830152610fd081610f94565b9050919050565b7f45524332303a20696e73756666696369656e7420616c6c6f77616e6365000000600082015250565b600061100d601d83610a87565b915061101882610fd7565b602082019050919050565b6000602082019050818103600083015261103c81611000565b9050919050565b7f45524332303a207472616e736665722066726f6d20746865207a65726f20616460008201527f6472657373000000000000000000000000000000000000000000000000000000602082015250565b600061109f602583610a87565b91506110aa82611043565b604082019050919050565b600060208201905081810360008301526110ce81611092565b9050919050565b7f45524332303a207472616e7366657220746f20746865207a65726f206164647260008201527f6573730000000000000000000000000000000000000000000000000000000000602082015250565b6000611131602383610a87565b915061113c826110d5565b604082019050919050565b6000602082019050818103600083015261116081611124565b9050919050565b7f45524332303a207472616e7366657220616d6f756e742065786365656473206260008201527f616c616e63650000000000000000000000000000000000000000000000000000602082015250565b60006111c3602683610a87565b91506111ce82611167565b604082019050919050565b600060208201905081810360008301526111f2816111b6565b905091905056fea26469706673582212207058755c9239afbc9d9dae3538b615f710eded6cb341955c5148e803ea68eef664736f6c63430008110033",
  "immutableReferences": {},
  "source": "// Crowdsale.sol\n// SPDX-License-Identifier: MIT\npragma solidity 0.8.17;\nimport \"./ERC20Token.sol\";\ncontract Crowdsale {  \n  uint public rate = 200; // le taux  utiliser\n  ERC20Token public token;\n  constructor(uint256 initialSupply) {\n      token = new ERC20Token(initialSupply);\n  }\n \n  receive() external payable {\n       require(msg.value >= 0.1 ether, \"you can't send less than 0.1 ether\");\n       distribute(msg.value);\n   }\n  \n   function distribute(uint256 amount) internal {\n       uint256 tokensToSent = amount * rate;\n      \n       token.transfer(msg.sender, tokensToSent);\n   }\n}",
  "sourcePath": "/home/ibournubuntu/ALYRA/Developpeur-Ethereum-Template/4. Truffle & CI-CD/LiveFork/contracts/CrowdSale.sol",
  "compiler": {
    "name": "solc",
    "version": "0.8.17+commit.8df45f5f.Emscripten.clang"
  },
  "schemaVersion": "3.4.14",
  "updatedAt": "2023-05-31T21:43:05.761Z",
  "devdoc": {
    "kind": "dev",
    "methods": {},
    "version": 1
  },
  "userdoc": {
    "kind": "user",
    "methods": {},
    "version": 1
  }
}