{
  "contractName": "Chainlink3",
  "abi": [
    {
      "inputs": [],
      "stateMutability": "nonpayable",
      "type": "constructor"
    },
    {
      "anonymous": false,
      "inputs": [
        {
          "indexed": true,
          "internalType": "bytes32",
          "name": "id",
          "type": "bytes32"
        }
      ],
      "name": "ChainlinkCancelled",
      "type": "event"
    },
    {
      "anonymous": false,
      "inputs": [
        {
          "indexed": true,
          "internalType": "bytes32",
          "name": "id",
          "type": "bytes32"
        }
      ],
      "name": "ChainlinkFulfilled",
      "type": "event"
    },
    {
      "anonymous": false,
      "inputs": [
        {
          "indexed": true,
          "internalType": "bytes32",
          "name": "id",
          "type": "bytes32"
        }
      ],
      "name": "ChainlinkRequested",
      "type": "event"
    },
    {
      "anonymous": false,
      "inputs": [
        {
          "indexed": true,
          "internalType": "address",
          "name": "from",
          "type": "address"
        },
        {
          "indexed": true,
          "internalType": "address",
          "name": "to",
          "type": "address"
        }
      ],
      "name": "OwnershipTransferRequested",
      "type": "event"
    },
    {
      "anonymous": false,
      "inputs": [
        {
          "indexed": true,
          "internalType": "address",
          "name": "from",
          "type": "address"
        },
        {
          "indexed": true,
          "internalType": "address",
          "name": "to",
          "type": "address"
        }
      ],
      "name": "OwnershipTransferred",
      "type": "event"
    },
    {
      "anonymous": false,
      "inputs": [
        {
          "indexed": true,
          "internalType": "bytes32",
          "name": "requestId",
          "type": "bytes32"
        },
        {
          "indexed": false,
          "internalType": "uint256",
          "name": "volume",
          "type": "uint256"
        }
      ],
      "name": "RequestVolume",
      "type": "event"
    },
    {
      "inputs": [],
      "name": "acceptOwnership",
      "outputs": [],
      "stateMutability": "nonpayable",
      "type": "function"
    },
    {
      "inputs": [],
      "name": "owner",
      "outputs": [
        {
          "internalType": "address",
          "name": "",
          "type": "address"
        }
      ],
      "stateMutability": "view",
      "type": "function"
    },
    {
      "inputs": [
        {
          "internalType": "address",
          "name": "to",
          "type": "address"
        }
      ],
      "name": "transferOwnership",
      "outputs": [],
      "stateMutability": "nonpayable",
      "type": "function"
    },
    {
      "inputs": [],
      "name": "volume",
      "outputs": [
        {
          "internalType": "uint256",
          "name": "",
          "type": "uint256"
        }
      ],
      "stateMutability": "view",
      "type": "function"
    },
    {
      "inputs": [],
      "name": "requestVolumeData",
      "outputs": [
        {
          "internalType": "bytes32",
          "name": "requestId",
          "type": "bytes32"
        }
      ],
      "stateMutability": "nonpayable",
      "type": "function"
    },
    {
      "inputs": [
        {
          "internalType": "bytes32",
          "name": "_requestId",
          "type": "bytes32"
        },
        {
          "internalType": "uint256",
          "name": "_volume",
          "type": "uint256"
        }
      ],
      "name": "fulfill",
      "outputs": [],
      "stateMutability": "nonpayable",
      "type": "function"
    },
    {
      "inputs": [],
      "name": "withdrawLink",
      "outputs": [],
      "stateMutability": "nonpayable",
      "type": "function"
    }
  ],
  "bytecode": "0x608060405260016004553480156200001657600080fd5b50338060008073ffffffffffffffffffffffffffffffffffffffff168273ffffffffffffffffffffffffffffffffffffffff16036200008c576040517f08c379a00000000000000000000000000000000000000000000000000000000081526004016200008390620003b7565b60405180910390fd5b81600660006101000a81548173ffffffffffffffffffffffffffffffffffffffff021916908373ffffffffffffffffffffffffffffffffffffffff160217905550600073ffffffffffffffffffffffffffffffffffffffff168173ffffffffffffffffffffffffffffffffffffffff1614620001145762000113816200019d60201b60201c565b5b5050506200013c73326c977e6efc84e512bb9c30f76e30c160ed06fb620002ce60201b60201c565b6200016173cc79157eb46f5624204f47ab42b3906caa40eab76200031260201b60201c565b7f6361393833363663633733313439353762386330313263373266303561656562600a8190555067016345785d8a0000600b819055506200044b565b3373ffffffffffffffffffffffffffffffffffffffff168173ffffffffffffffffffffffffffffffffffffffff16036200020e576040517f08c379a0000000000000000000000000000000000000000000000000000000008152600401620002059062000429565b60405180910390fd5b80600760006101000a81548173ffffffffffffffffffffffffffffffffffffffff021916908373ffffffffffffffffffffffffffffffffffffffff1602179055508073ffffffffffffffffffffffffffffffffffffffff16600660009054906101000a900473ffffffffffffffffffffffffffffffffffffffff1673ffffffffffffffffffffffffffffffffffffffff167fed8889f560326eb138920d842192f0eb3dd22b4f139c87a2c57538e05bae127860405160405180910390a350565b80600260006101000a81548173ffffffffffffffffffffffffffffffffffffffff021916908373ffffffffffffffffffffffffffffffffffffffff16021790555050565b80600360006101000a81548173ffffffffffffffffffffffffffffffffffffffff021916908373ffffffffffffffffffffffffffffffffffffffff16021790555050565b600082825260208201905092915050565b7f43616e6e6f7420736574206f776e657220746f207a65726f0000000000000000600082015250565b60006200039f60188362000356565b9150620003ac8262000367565b602082019050919050565b60006020820190508181036000830152620003d28162000390565b9050919050565b7f43616e6e6f74207472616e7366657220746f2073656c66000000000000000000600082015250565b60006200041160178362000356565b91506200041e82620003d9565b602082019050919050565b60006020820190508181036000830152620004448162000402565b9050919050565b611ec5806200045b6000396000f3fe608060405234801561001057600080fd5b506004361061007d5760003560e01c80638da5cb5b1161005b5780638da5cb5b146100c65780638dc654a2146100e4578063c618a1e4146100ee578063f2fde38b1461010c5761007d565b80634357855e146100825780636021abac1461009e57806379ba5097146100bc575b600080fd5b61009c600480360381019061009791906113d1565b610128565b005b6100a6610271565b6040516100b39190611420565b60405180910390f35b6100c46103c8565b005b6100ce61055f565b6040516100db919061147c565b60405180910390f35b6100ec610589565b005b6100f66106d6565b60405161010391906114a6565b60405180910390f35b610126600480360381019061012191906114ed565b6106dc565b005b816005600082815260200190815260200160002060009054906101000a900473ffffffffffffffffffffffffffffffffffffffff1673ffffffffffffffffffffffffffffffffffffffff163373ffffffffffffffffffffffffffffffffffffffff16146101ca576040517f08c379a00000000000000000000000000000000000000000000000000000000081526004016101c19061159d565b60405180910390fd5b6005600082815260200190815260200160002060006101000a81549073ffffffffffffffffffffffffffffffffffffffff0219169055807f7cc135e0cebb02c3480ae5d74d377283180a2601f8f644edf7987b009316c63a60405160405180910390a2827f673b38182859a514d734bdfcb49d3a05c4a641dec9311d9894c9717bcb79af768360405161025d91906114a6565b60405180910390a281600881905550505050565b600080610288600a5430634357855e60e01b6106f0565b90506102ec6040518060400160405280600381526020017f6765740000000000000000000000000000000000000000000000000000000000815250604051806080016040528060498152602001611e4760499139836107219092919063ffffffff16565b61036b6040518060400160405280600481526020017f70617468000000000000000000000000000000000000000000000000000000008152506040518060400160405280601881526020017f5241572c4554482c5553442c564f4c554d453234484f55520000000000000000815250836107219092919063ffffffff16565b6103b66040518060400160405280600581526020017f74696d65730000000000000000000000000000000000000000000000000000008152506001836107549092919063ffffffff16565b6103c281600b54610787565b91505090565b600760009054906101000a900473ffffffffffffffffffffffffffffffffffffffff1673ffffffffffffffffffffffffffffffffffffffff163373ffffffffffffffffffffffffffffffffffffffff1614610458576040517f08c379a000000000000000000000000000000000000000000000000000000000815260040161044f90611609565b60405180910390fd5b6000600660009054906101000a900473ffffffffffffffffffffffffffffffffffffffff16905033600660006101000a81548173ffffffffffffffffffffffffffffffffffffffff021916908373ffffffffffffffffffffffffffffffffffffffff1602179055506000600760006101000a81548173ffffffffffffffffffffffffffffffffffffffff021916908373ffffffffffffffffffffffffffffffffffffffff1602179055503373ffffffffffffffffffffffffffffffffffffffff168173ffffffffffffffffffffffffffffffffffffffff167f8be0079c531659141344cd1fd0a4f28419497f9722a3daafe3b4186f6b6457e060405160405180910390a350565b6000600660009054906101000a900473ffffffffffffffffffffffffffffffffffffffff16905090565b6105916107be565b600061059b610850565b90508073ffffffffffffffffffffffffffffffffffffffff1663a9059cbb338373ffffffffffffffffffffffffffffffffffffffff166370a08231306040518263ffffffff1660e01b81526004016105f3919061147c565b602060405180830381865afa158015610610573d6000803e3d6000fd5b505050506040513d601f19601f82011682018060405250810190610634919061163e565b6040518363ffffffff1660e01b815260040161065192919061166b565b6020604051808303816000875af1158015610670573d6000803e3d6000fd5b505050506040513d601f19601f8201168201806040525081019061069491906116cc565b6106d3576040517f08c379a00000000000000000000000000000000000000000000000000000000081526004016106ca90611745565b60405180910390fd5b50565b60085481565b6106e46107be565b6106ed8161087a565b50565b6106f86112d9565b6107006112d9565b610717858585846109a8909392919063ffffffff16565b9150509392505050565b610738828460800151610a5890919063ffffffff16565b61074f818460800151610a5890919063ffffffff16565b505050565b61076b828460800151610a5890919063ffffffff16565b610782818460800151610a7d90919063ffffffff16565b505050565b60006107b6600360009054906101000a900473ffffffffffffffffffffffffffffffffffffffff168484610b2a565b905092915050565b600660009054906101000a900473ffffffffffffffffffffffffffffffffffffffff1673ffffffffffffffffffffffffffffffffffffffff163373ffffffffffffffffffffffffffffffffffffffff161461084e576040517f08c379a0000000000000000000000000000000000000000000000000000000008152600401610845906117b1565b60405180910390fd5b565b6000600260009054906101000a900473ffffffffffffffffffffffffffffffffffffffff16905090565b3373ffffffffffffffffffffffffffffffffffffffff168173ffffffffffffffffffffffffffffffffffffffff16036108e8576040517f08c379a00000000000000000000000000000000000000000000000000000000081526004016108df9061181d565b60405180910390fd5b80600760006101000a81548173ffffffffffffffffffffffffffffffffffffffff021916908373ffffffffffffffffffffffffffffffffffffffff1602179055508073ffffffffffffffffffffffffffffffffffffffff16600660009054906101000a900473ffffffffffffffffffffffffffffffffffffffff1673ffffffffffffffffffffffffffffffffffffffff167fed8889f560326eb138920d842192f0eb3dd22b4f139c87a2c57538e05bae127860405160405180910390a350565b6109b06112d9565b6109c08560800151610100610bf6565b508385600001818152505082856020019073ffffffffffffffffffffffffffffffffffffffff16908173ffffffffffffffffffffffffffffffffffffffff16815250508185604001907bffffffffffffffffffffffffffffffffffffffffffffffffffffffff191690817bffffffffffffffffffffffffffffffffffffffffffffffffffffffff191681525050849050949350505050565b610a658260038351610c60565b610a788183610de590919063ffffffff16565b505050565b7fffffffffffffffffffffffffffffffffffffffffffffffff0000000000000000811215610ab457610aaf8282610e07565b610b26565b67ffffffffffffffff811315610ad357610ace8282610e7e565b610b25565b60008112610aec57610ae782600083610c60565b610b24565b610b23826001837fffffffffffffffffffffffffffffffffffffffffffffffffffffffffffffffff610b1e9190611876565b610c60565b5b5b5b5050565b6000806004549050600181610b3f91906118b9565b6004819055506000634042994660e01b60008087600001513089604001518760018c6080015160000151604051602401610b809897969594939291906119b8565b604051602081830303815290604052907bffffffffffffffffffffffffffffffffffffffffffffffffffffffff19166020820180517bffffffffffffffffffffffffffffffffffffffffffffffffffffffff83818316178352505050509050610beb86838684610eca565b925050509392505050565b610bfe611346565b6000602083610c0d9190611a6c565b14610c3957602082610c1f9190611a6c565b6020610c2b9190611a9d565b82610c3691906118b9565b91505b81836020018181525050604051808452600081528281016020016040525082905092915050565b60178167ffffffffffffffff1611610c9757610c918160058460ff16901b60ff16178461105f90919063ffffffff16565b50610de0565b60ff8167ffffffffffffffff1611610ced57610cc6601860058460ff16901b178461105f90919063ffffffff16565b50610ce78167ffffffffffffffff1660018561107f9092919063ffffffff16565b50610ddf565b61ffff8167ffffffffffffffff1611610d4457610d1d601960058460ff16901b178461105f90919063ffffffff16565b50610d3e8167ffffffffffffffff1660028561107f9092919063ffffffff16565b50610dde565b63ffffffff8167ffffffffffffffff1611610d9d57610d76601a60058460ff16901b178461105f90919063ffffffff16565b50610d978167ffffffffffffffff1660048561107f9092919063ffffffff16565b50610ddd565b610dba601b60058460ff16901b178461105f90919063ffffffff16565b50610ddb8167ffffffffffffffff1660088561107f9092919063ffffffff16565b505b5b5b5b505050565b610ded611346565b610dff838460000151518485516110a1565b905092915050565b610e2560036005600660ff16901b178361105f90919063ffffffff16565b50610e7a82827fffffffffffffffffffffffffffffffffffffffffffffffffffffffffffffffff610e569190611876565b604051602001610e6691906114a6565b604051602081830303815290604052611190565b5050565b610e9c60026005600660ff16901b178361105f90919063ffffffff16565b50610ec68282604051602001610eb291906114a6565b604051602081830303815290604052611190565b5050565b60003084604051602001610edf929190611b8a565b604051602081830303815290604052805190602001209050846005600083815260200190815260200160002060006101000a81548173ffffffffffffffffffffffffffffffffffffffff021916908373ffffffffffffffffffffffffffffffffffffffff160217905550807fb5e6e01e79f91267dc17b4e6314d5d4d03593d2ceee0fbb452b750bd70ea5af960405160405180910390a2600260009054906101000a900473ffffffffffffffffffffffffffffffffffffffff1673ffffffffffffffffffffffffffffffffffffffff16634000aea08685856040518463ffffffff1660e01b8152600401610fd593929190611bb6565b6020604051808303816000875af1158015610ff4573d6000803e3d6000fd5b505050506040513d601f19601f8201168201806040525081019061101891906116cc565b611057576040517f08c379a000000000000000000000000000000000000000000000000000000000815260040161104e90611c66565b60405180910390fd5b949350505050565b611067611346565b61107783846000015151846111b5565b905092915050565b611087611346565b61109884856000015151858561120b565b90509392505050565b6110a9611346565b82518211156110b757600080fd5b846020015182856110c891906118b9565b11156110fd576110fc8560026110ed886020015188876110e891906118b9565b611299565b6110f79190611c86565b6112b5565b5b60008086518051876020830101935080888701111561111c5787860182525b60208701925050505b60208410611163578051825260208261113e91906118b9565b915060208161114d91906118b9565b905060208461115c9190611a9d565b9350611125565b60006001856020036101000a03905080198251168184511681811785525050508692505050949350505050565b61119d8260028351610c60565b6111b08183610de590919063ffffffff16565b505050565b6111bd611346565b836020015183106111e3576111e284600286602001516111dd9190611c86565b6112b5565b5b835180516020858301018481538186036111fe576001820183525b5050508390509392505050565b611213611346565b8460200151848361122491906118b9565b111561124c5761124b856002868561123c91906118b9565b6112469190611c86565b6112b5565b5b600060018361010061125e9190611dfb565b6112689190611a9d565b9050855183868201018583198251161781528151858801111561128b5784870182525b505085915050949350505050565b6000818311156112ab578290506112af565b8190505b92915050565b6000826000015190506112c88383610bf6565b506112d38382610de5565b50505050565b6040518060a0016040528060008019168152602001600073ffffffffffffffffffffffffffffffffffffffff16815260200160007bffffffffffffffffffffffffffffffffffffffffffffffffffffffff1916815260200160008152602001611340611346565b81525090565b604051806040016040528060608152602001600081525090565b600080fd5b6000819050919050565b61137881611365565b811461138357600080fd5b50565b6000813590506113958161136f565b92915050565b6000819050919050565b6113ae8161139b565b81146113b957600080fd5b50565b6000813590506113cb816113a5565b92915050565b600080604083850312156113e8576113e7611360565b5b60006113f685828601611386565b9250506020611407858286016113bc565b9150509250929050565b61141a81611365565b82525050565b60006020820190506114356000830184611411565b92915050565b600073ffffffffffffffffffffffffffffffffffffffff82169050919050565b60006114668261143b565b9050919050565b6114768161145b565b82525050565b6000602082019050611491600083018461146d565b92915050565b6114a08161139b565b82525050565b60006020820190506114bb6000830184611497565b92915050565b6114ca8161145b565b81146114d557600080fd5b50565b6000813590506114e7816114c1565b92915050565b60006020828403121561150357611502611360565b5b6000611511848285016114d8565b91505092915050565b600082825260208201905092915050565b7f536f75726365206d75737420626520746865206f7261636c65206f662074686560008201527f2072657175657374000000000000000000000000000000000000000000000000602082015250565b600061158760288361151a565b91506115928261152b565b604082019050919050565b600060208201905081810360008301526115b68161157a565b9050919050565b7f4d7573742062652070726f706f736564206f776e657200000000000000000000600082015250565b60006115f360168361151a565b91506115fe826115bd565b602082019050919050565b60006020820190508181036000830152611622816115e6565b9050919050565b600081519050611638816113a5565b92915050565b60006020828403121561165457611653611360565b5b600061166284828501611629565b91505092915050565b6000604082019050611680600083018561146d565b61168d6020830184611497565b9392505050565b60008115159050919050565b6116a981611694565b81146116b457600080fd5b50565b6000815190506116c6816116a0565b92915050565b6000602082840312156116e2576116e1611360565b5b60006116f0848285016116b7565b91505092915050565b7f556e61626c6520746f207472616e736665720000000000000000000000000000600082015250565b600061172f60128361151a565b915061173a826116f9565b602082019050919050565b6000602082019050818103600083015261175e81611722565b9050919050565b7f4f6e6c792063616c6c61626c65206279206f776e657200000000000000000000600082015250565b600061179b60168361151a565b91506117a682611765565b602082019050919050565b600060208201905081810360008301526117ca8161178e565b9050919050565b7f43616e6e6f74207472616e7366657220746f2073656c66000000000000000000600082015250565b600061180760178361151a565b9150611812826117d1565b602082019050919050565b60006020820190508181036000830152611836816117fa565b9050919050565b6000819050919050565b7f4e487b7100000000000000000000000000000000000000000000000000000000600052601160045260246000fd5b60006118818261183d565b915061188c8361183d565b92508282039050818112600084121682821360008512151617156118b3576118b2611847565b5b92915050565b60006118c48261139b565b91506118cf8361139b565b92508282019050808211156118e7576118e6611847565b5b92915050565b60007fffffffff0000000000000000000000000000000000000000000000000000000082169050919050565b611922816118ed565b82525050565b600081519050919050565b600082825260208201905092915050565b60005b83811015611962578082015181840152602081019050611947565b60008484015250505050565b6000601f19601f8301169050919050565b600061198a82611928565b6119948185611933565b93506119a4818560208601611944565b6119ad8161196e565b840191505092915050565b6000610100820190506119ce600083018b61146d565b6119db602083018a611497565b6119e86040830189611411565b6119f5606083018861146d565b611a026080830187611919565b611a0f60a0830186611497565b611a1c60c0830185611497565b81810360e0830152611a2e818461197f565b90509998505050505050505050565b7f4e487b7100000000000000000000000000000000000000000000000000000000600052601260045260246000fd5b6000611a778261139b565b9150611a828361139b565b925082611a9257611a91611a3d565b5b828206905092915050565b6000611aa88261139b565b9150611ab38361139b565b9250828203905081811115611acb57611aca611847565b5b92915050565b6000819050919050565b6000611af6611af1611aec8461143b565b611ad1565b61143b565b9050919050565b6000611b0882611adb565b9050919050565b6000611b1a82611afd565b9050919050565b60008160601b9050919050565b6000611b3982611b21565b9050919050565b6000611b4b82611b2e565b9050919050565b611b63611b5e82611b0f565b611b40565b82525050565b6000819050919050565b611b84611b7f8261139b565b611b69565b82525050565b6000611b968285611b52565b601482019150611ba68284611b73565b6020820191508190509392505050565b6000606082019050611bcb600083018661146d565b611bd86020830185611497565b8181036040830152611bea818461197f565b9050949350505050565b7f756e61626c6520746f207472616e73666572416e6443616c6c20746f206f726160008201527f636c650000000000000000000000000000000000000000000000000000000000602082015250565b6000611c5060238361151a565b9150611c5b82611bf4565b604082019050919050565b60006020820190508181036000830152611c7f81611c43565b9050919050565b6000611c918261139b565b9150611c9c8361139b565b9250828202611caa8161139b565b91508282048414831517611cc157611cc0611847565b5b5092915050565b60008160011c9050919050565b6000808291508390505b6001851115611d1f57808604811115611cfb57611cfa611847565b5b6001851615611d0a5780820291505b8081029050611d1885611cc8565b9450611cdf565b94509492505050565b600082611d385760019050611df4565b81611d465760009050611df4565b8160018114611d5c5760028114611d6657611d95565b6001915050611df4565b60ff841115611d7857611d77611847565b5b8360020a915084821115611d8f57611d8e611847565b5b50611df4565b5060208310610133831016604e8410600b8410161715611dca5782820a905083811115611dc557611dc4611847565b5b611df4565b611dd78484846001611cd5565b92509050818404811115611dee57611ded611847565b5b81810290505b9392505050565b6000611e068261139b565b9150611e118361139b565b9250611e3e7fffffffffffffffffffffffffffffffffffffffffffffffffffffffffffffffff8484611d28565b90509291505056fe68747470733a2f2f6d696e2d6170692e63727970746f636f6d706172652e636f6d2f646174612f70726963656d756c746966756c6c3f6673796d733d455448267473796d733d555344a26469706673582212202a3f81417a6309ab5f18604dc8863d5a4b952e619d9777119df8cac17c5879eb64736f6c63430008130033",
  "immutableReferences": {},
  "source": "// SPDX-License-Identifier: MIT\npragma solidity 0.8.19;\n\nimport \"../node_modules/@chainlink/contracts/src/v0.8/ChainlinkClient.sol\";\nimport \"../node_modules/@chainlink/contracts/src/v0.8/ConfirmedOwner.sol\";\n\n\ncontract Chainlink3 is ChainlinkClient,ConfirmedOwner {\n    using Chainlink for Chainlink.Request;\n  \n    uint256 public volume;\n    \n    address private oracle;\n    bytes32 private jobId;\n    uint256 private fee;\n    \n    event RequestVolume(bytes32 indexed requestId, uint256 volume);\n\n    /**\n     * Network: Goerli\n     * token: 0x326C977E6efc84E512bB9C30f76E30c160eD06FB\n     * Oracle: 0xCC79157eb46F5624204f47AB42b3906cAA40eaB7 (Chainlink Devrel Node)\n     * Job ID: d5270d1c311941d0b08bead21fea7747\n     * Fee: 0.1 LINK\n     */\n    constructor() ConfirmedOwner(msg.sender) {\n        setChainlinkToken(0x326C977E6efc84E512bB9C30f76E30c160eD06FB);\n        setChainlinkOracle(0xCC79157eb46F5624204f47AB42b3906cAA40eaB7);\n        jobId = \"ca98366cc7314957b8c012c72f05aeeb\";\n        fee = 1 * 10 ** 17; // (Varies by network and job)\n    }\n    \n    /**\n     * Create a Chainlink request to retrieve API response, find the target\n     * data, then multiply by 1000000000000000000 (to remove decimal places from data).\n     */\n    function requestVolumeData() public returns (bytes32 requestId) \n    {\n        Chainlink.Request memory request = buildChainlinkRequest(jobId, address(this), this.fulfill.selector);\n        \n        // Set the URL to perform the GET request on\n        request.add('get', 'https://min-api.cryptocompare.com/data/pricemultifull?fsyms=ETH&tsyms=USD');\n        \n        // Set the path to find the desired data in the API response, where the response format is:\n        // {\"RAW\":\n        //   {\"ETH\":\n        //    {\"USD\":\n        //     {\n        //      \"VOLUME24HOUR\": xxx.xxx,\n        //     }\n        //    }\n        //   }\n        //  }\n        request.add(\"path\", \"RAW,ETH,USD,VOLUME24HOUR\"); \n        //request.add(\"path\", \"path\");\n        \n        // Multiply the result by 1000000000000000000 to remove decimals if necessary\n        request.addInt(\"times\", 1);\n        \n        // Sends the request\n        return sendChainlinkRequest(request, fee);\n    }\n    \n    /**\n     * Receive the response in the form of uint256\n     */ \n    function fulfill(bytes32 _requestId, uint256 _volume) public recordChainlinkFulfillment(_requestId)\n    {\n        emit RequestVolume(_requestId, _volume);\n        volume = _volume;\n    }\n\n    /**\n     * Allow withdraw of Link tokens from the contract\n     */\n    function withdrawLink() public onlyOwner {\n        LinkTokenInterface link = LinkTokenInterface(chainlinkTokenAddress());\n        require(\n            link.transfer(msg.sender, link.balanceOf(address(this))),\n            \"Unable to transfer\"\n        );\n    }}",
  "sourcePath": "/home/ibournubuntu/ALYRA/Developpeur-Ethereum-Template/7. Finance Dcentralise/ChainlinkFeeds/contracts/Chainlink3.sol",
  "compiler": {
    "name": "solc",
    "version": "0.8.19+commit.7dd6d404.Emscripten.clang"
  },
  "schemaVersion": "3.4.14",
  "updatedAt": "2023-08-04T00:08:16.938Z",
  "devdoc": {
    "kind": "dev",
    "methods": {},
    "version": 1
  },
  "userdoc": {
    "kind": "user",
    "methods": {
      "acceptOwnership()": {
        "notice": "Allows an ownership transfer to be completed by the recipient."
      },
      "constructor": {
        "notice": "Network: Goerli token: 0x326C977E6efc84E512bB9C30f76E30c160eD06FB Oracle: 0xCC79157eb46F5624204f47AB42b3906cAA40eaB7 (Chainlink Devrel Node) Job ID: d5270d1c311941d0b08bead21fea7747 Fee: 0.1 LINK"
      },
      "fulfill(bytes32,uint256)": {
        "notice": "Receive the response in the form of uint256"
      },
      "owner()": {
        "notice": "Get the current owner"
      },
      "requestVolumeData()": {
        "notice": "Create a Chainlink request to retrieve API response, find the target data, then multiply by 1000000000000000000 (to remove decimal places from data)."
      },
      "transferOwnership(address)": {
        "notice": "Allows an owner to begin transferring ownership to a new address, pending."
      },
      "withdrawLink()": {
        "notice": "Allow withdraw of Link tokens from the contract"
      }
    },
    "version": 1
  }
}