{
  "_format": "hh-sol-artifact-1",
  "contractName": "Bank",
  "sourceName": "contracts/Bank.sol",
  "abi": [
    {
      "inputs": [],
      "name": "Bank__NotEnoughEthersOnTheSC",
      "type": "error"
    },
    {
      "inputs": [],
      "name": "Bank__NotEnoughFundsProvided",
      "type": "error"
    },
    {
      "inputs": [],
      "name": "Bank__WithdrawFailed",
      "type": "error"
    },
    {
      "inputs": [],
      "name": "sendEthers",
      "outputs": [],
      "stateMutability": "payable",
      "type": "function"
    },
    {
      "inputs": [
        {
          "internalType": "uint256",
          "name": "_amount",
          "type": "uint256"
        }
      ],
      "name": "withdraw",
      "outputs": [],
      "stateMutability": "nonpayable",
      "type": "function"
    }
  ],
  "bytecode": "0x608060405234801561000f575f80fd5b506103c48061001d5f395ff3fe608060405260043610610028575f3560e01c80630783cda71461002c5780632e1a7d4d14610036575b5f80fd5b61003461005e565b005b348015610041575f80fd5b5061005c6004803603810190610057919061028f565b6100ed565b005b6001341015610099576040517f06f7aa0000000000000000000000000000000000000000000000000000000000815260040160405180910390fd5b345f803373ffffffffffffffffffffffffffffffffffffffff1673ffffffffffffffffffffffffffffffffffffffff1681526020019081526020015f205f8282546100e491906102e7565b92505081905550565b5f803373ffffffffffffffffffffffffffffffffffffffff1673ffffffffffffffffffffffffffffffffffffffff1681526020019081526020015f2054811115610163576040517feb85367a00000000000000000000000000000000000000000000000000000000815260040160405180910390fd5b805f803373ffffffffffffffffffffffffffffffffffffffff1673ffffffffffffffffffffffffffffffffffffffff1681526020019081526020015f205f8282546101ae919061031a565b925050819055505f3373ffffffffffffffffffffffffffffffffffffffff16826040516101da9061037a565b5f6040518083038185875af1925050503d805f8114610214576040519150601f19603f3d011682016040523d82523d5f602084013e610219565b606091505b5050905080610254576040517f8521549000000000000000000000000000000000000000000000000000000000815260040160405180910390fd5b5050565b5f80fd5b5f819050919050565b61026e8161025c565b8114610278575f80fd5b50565b5f8135905061028981610265565b92915050565b5f602082840312156102a4576102a3610258565b5b5f6102b18482850161027b565b91505092915050565b7f4e487b71000000000000000000000000000000000000000000000000000000005f52601160045260245ffd5b5f6102f18261025c565b91506102fc8361025c565b9250828201905080821115610314576103136102ba565b5b92915050565b5f6103248261025c565b915061032f8361025c565b9250828203905081811115610347576103466102ba565b5b92915050565b5f81905092915050565b50565b5f6103655f8361034d565b915061037082610357565b5f82019050919050565b5f6103848261035a565b915081905091905056fea2646970667358221220fe8a4edc081f84f862f9dea2088bad76c5f8a4e297046fc47e897f3369aa018064736f6c63430008140033",
  "linkReferences": {},
  "deployedLinkReferences": {}
}